:020000040800F2
:1000000038040020010100089F100008F90F0008C3
:100010009D1000085F070008E111000800000000C3
:10002000000000000000000000000000C3100008F5
:10003000D107000800000000C110000845110008A9
:100040001B0100081B0100081B0100081B01000820
:100050001B0100081B0100081B0100081B01000810
:100060001B0100081B0100081B0100081B01000800
:100070001B0100081B0100081B0100081B010008F0
:100080001B0100081B0100081B0100081B010008E0
:100090001B0100081B0100081B0100081B010008D0
:1000A0001B0100081B0100081B0100081B010008C0
:1000B0001B0100081B0100081B0100081B010008B0
:1000C0001B0100081B0100081B0100081B010008A0
:1000D0001B0100081B0100081B0100081B01000890
:1000E0001B0100081B0100081B010008DFF80CD0F1
:1000F00000F002FB00480047611D000838040020A2
:100100000648804706480047FEE7FEE7FEE7FEE7B1
:10011000FEE7FEE7FEE7FEE7FEE7FEE799110008CF
:10012000ED000008202A04DB203A21FA02F0002129
:10013000704721FA02F3D040C2F1200291400843F7
:1001400019467047D2B201E000F8012B491EFBD2DC
:1001500070470022F6E710B513460A4604461946D2
:10016000FFF7F0FF204610BD2DE9F04D81EA0304B2
:1001700004F0004B21F0004514464FF0000A23F034
:10018000004150EA050220D054EA01021DD0C5F317
:100190000A570246C5F31303C1F31300C1F30A560D
:1001A00040F4801543F48013A7EB0608101BD646D5
:1001B00008F2FD3873EB050002D308F1010801E0F5
:1001C00092185B41B8F1000F03DA00200146BDE848
:1001D000F08D00204FF48011064684460EE0171B78
:1001E00073EB050705D3121B63EB050306434CEACB
:1001F000010C49084FEA300092185B4150EA0107B0
:10020000EDD152EA030012D082EA040083EA05012C
:10021000084305D0101BAB4106D20122002306E0A3
:1002200000224FF0004302E06FF0010253101AEB7E
:1002300006004CEB085110EB0A0041EB0B01BDE846
:10024000F04D00F0B2B896230022114600F07FB8BE
:1002500000F0004230F000400AD0C10D01F560719D
:10026000C0F3160042EA0151C2084007114370472B
:1002700000200146704701F0004330B421F00041F6
:1002800050EA010206D00A0DA2F56072C1F3130113
:10029000002A02DC30BC00207047440F44EAC1044D
:1002A000C100E01830BC00EBC25000F047B830B5D8
:1002B0000B46014600202022012409E021FA02F524
:1002C0009D4205D303FA02F5491B04FA02F52844BE
:1002D000151EA2F10102F1DC30BD2DE9F05F0546EB
:1002E000002092469B4688460646814640241BE0F5
:1002F0002846414647462246FFF714FF53465A46D2
:10030000C01A914110D311461846224600F006FA51
:100310002D1A67EB01084F4622460120002100F00C
:10032000FDF917EB00094E41201EA4F10104DFDCAA
:10033000484631462A464346BDE8F09F0029A8BFFB
:100340007047401C490008BF20F00100704710B4FE
:10035000B0FA80FC00FA0CF050EA010404BF10BCB3
:10036000704749B1CCF1200421FA04F411FA0CF1E0
:1003700018BF012121430843A3EB0C01CB1D4FEA19
:1003800000614FEA102042BF002010BC704700EB14
:10039000C35010440029A4BF10BC7047401C490042
:1003A00008BF20F0010010BC704710B5141E73F197
:1003B000000408DA401C41F1000192185B411A4325
:1003C00001D120F0010010BD2DE9F04D92469B4671
:1003D00011B1B1FA81F202E0B0FA80F22032904617
:1003E00000F09CF904460F4640EA0A0041EA0B017E
:1003F00053465A46084313D0114653EA010019D018
:10040000C8F140025046FFF78DFE05460E465046A5
:100410005946424600F082F9084305D0012004E025
:1004200020463946BDE8F08D0020054346EAE076D7
:100430002C4337430A986305E40AA0EB0800002226
:10044000FD0A44EA47540A3002D500200146E9E794
:10045000010510196941DDE9084500196941BDE848
:10046000F04DA2E72DE9FE4F804681EA0300C00F60
:100470000C46009021F0004123F00045B8EB02004B
:10048000A94105D24046214690461C460B460246ED
:1004900023F00040104347D0270DC7F30A00C3F3F1
:1004A0000A510290401A019040286BDAC3F31300FE
:1004B00040F4801B0098924620B10023D2EB030A3F
:1004C00063EB0B0B01985946C0F14002504600F017
:1004D00025F906460D4650465946019A00F02DF979
:1004E00010EB08006141002487EA115284EAE773A7
:1004F0001A4340D0009A62B3019A012A4FEA075288
:1005000015DC001B61EB02014FF0004202EA0752CA
:10051000CDE90042001C41F5801132462B46FFF721
:1005200053FF03B0BDE8F08F40462146F9E7001BBA
:1005300061EB0201001C41F5801300185B4120189B
:10054000A2F5001747EB030140EAD570B6196D41DB
:1005500011E06D084FEA360645EAC0754FEA0752CA
:10056000001B61EB0201001C41F5801149084FEAB4
:1005700030000019514132462B4603B0BDE8F04F20
:10058000FFF713BF0098012240000023D0EB0202C6
:1005900063EBE073009821464FEAE074B8EB00008B
:1005A00061EB0401E9E783F000435BE781F0004180
:1005B00058E72DE9FE4F81EA030404F0004421F0DE
:1005C000004100944FF0000B23F0004350EA010477
:1005D0005ED052EA03045BD0C3F30A54C1F30A5558
:1005E0002C44A4F2F3340194A0FB0254C1F3130190
:1005F00041F48011C3F3130343F4801301FB02445D
:1006000000FB034E840A970A44EA815447EA835761
:10061000A4FB076802958D0A05FB07854FEA932C1A
:1006200004FB0C542705029D4FEA065847EA16378B
:10063000B5EB08056EEB070C870E920E47EA8117A3
:1006400042EA8312A7FB0201B6EB0B0164EB000444
:100650002B0D43EA0C335E1844EB1C50DA4651462E
:10066000E7FB0201C5F313044FEA0B3343EA1453CB
:100670004FEA0432019C43EA0603A4F10C040294FD
:10068000009CCDE900B4FFF79FFE03B0BDE8F08FFA
:1006900000200146F9E7C1F30A52C1F3130140F209
:1006A000FF3341F480119A4202DA0020014670477C
:1006B00040F233439A42A2F2334202DC5242FFF745
:1006C00031BD00F02BB8000030B5041E71F10004FC
:1006D00004DB4FF00044404264EB0101141E73F14F
:1006E000000405DB1C464FF00043524263EB040359
:1006F000994208BF904230BD064C074D06E0E068C5
:1007000040F0010394E8070098471034AC42F6D358
:10071000FFF7F0FCFC1D00081C1E0008202A04DB6B
:10072000203A00FA02F1002070479140C2F1200304
:1007300020FA03F3194390407047202A06DBCB17B9
:10074000203A41FA02F043EAE07306E041FA02F38C
:10075000D040C2F120029140084319467047FEE79D
:100760000E48016821F080710160016841F08071DC
:1007700001600B48016821F001010160016841F04E
:10078000010101600021416000BF00BF00BF40685F
:1007900008B100207047012070470000FCED00E028
:1007A000001000E031B5084D6C6800F053FA0749BD
:1007B000B0FBF1F000994843009068680099001B75
:1007C0008842FAD338BD0000001000E040420F001C
:1007D0007047000070B5044600F0F6F80546601C4E
:1007E00002D004480078044400F0EEF8401BA04218
:1007F000FAD370BD040000202DE9F84FDFF890A176
:1008000000220AF1040B144601274FF00F090BF1E7
:10081000040E00BF0B6807FA04F52B40AB4274D1FD
:10082000DFF870C14E68A6EB0C0866452BD00DDCD6
:10083000032E34D005DC36B3012E19D0022E2FD171
:100840001BE0112E16D0122E2AD119E0B8F5881F00
:1008500019D006DCB8F5803F15D0B8F5801F1FD140
:1008600011E0B8F5001F0ED0B8F5041F18D10AE04A
:10087000CA6815E0CA68121D12E0CA6808320FE0A3
:10088000CA680C320CE08A682AB1012A4FF00802CB
:1008900003D0456104E0042202E0056100E000228B
:1008A000FF2B01D8064601E000F104064FEA84055B
:1008B00001D9A5F12005D6F800C009FA05F82CEAFF
:1008C000080C02FA05F54CEA050CC6F800C04D68A4
:1008D000ED0057D5304DAE6946F00106AE61AD6909
:1008E00024F0030605F0010500952C4D06EB050CE0
:1008F000DCF80850A6074FEA167809FA08F6B5435F
:10090000274EB04202D1002610E03BE0254EB04217
:1009100001D101260AE0244EB04201D1022605E0B1
:10092000224EB04201D1032600E0042606FA08F662
:100930002E43CCF808604D68DAF80060ED035546A8
:1009400001D51E4300E09E432E604D68DBF8006039
:10095000AD035D4601D51E4300E09E432E604D6809
:10096000DEF80060ED02754601D51E4300E09E43AF
:100970002E604D68AD020E4D2E6801D51E4300E07D
:100980009E432E60641C102CFFF444AFBDE8F88F2A
:10099000000401400000111000100240000001405E
:1009A00000080140000C014000100140001401400B
:1009B0000C0401408068084000D0012070470AB153
:1009C000016170470904FBE7014880687047000037
:1009D0000400002002488168027811448160704759
:1009E00004000020074810B5016841F010010160C3
:1009F000032000F067F8002000F006F800F024F86B
:100A0000002010BD0020024070B50D4D04464FF48B
:100A10007A712878B1FBF0F00A490968B1FBF0F06F
:100A200000F0D6FA48B9102C07D200222146501EF9
:100A300000F028F800206C6070BD012070BD00003F
:100A400004000020100000200C4808B5816941F026
:100A500001018161816901F001010091C16941F0E9
:100A60008051C161C06900F0805000900448416825
:100A700021F0E06141F00071416008BD00100240CA
:100A800000000140F0B40E4B1B680C46C3F3022378
:100A9000C3F10705042D00D90425191D072901D22A
:100AA000002300E0DB1E012606FA05F1491E214065
:100AB00099409E40761E16403143F0BC00F0F0BADB
:100AC0000CED00E0064900F0070208684FF6FF034E
:100AD000184040EA0220034A1043086070470000B3
:100AE0000CED00E00000FA052DE9F047DFF8548135
:100AF00005460E46D8F8000000F00700B0420CD2C0
:100B0000D8F8001021F007013143C8F80010D8F8D8
:100B1000000000F00700B0426FD128684A4C8107FE
:100B200012D5400703D5606840F4E0606060287823
:100B3000000703D5606840F4605060606068A96891
:100B400020F0F000084360602878C00744D068684F
:100B5000012816D02168022816D0890700294CDA0E
:100B6000616821F0030101436160FFF72DFF6968AF
:100B7000074641F2883001290ED00229814618D05B
:100B800026E021688903E9E78901E7E7FFF71CFF11
:100B9000C11B494501D918E081466068C0F3810056
:100BA0000128F3D118E000BFFFF70EFFC11B494534
:100BB0000BD86068C0F381000228F5D10CE000BFBB
:100BC000FFF702FFC11B494502D90320BDE8F087AA
:100BD000606810F00C0FF3D1D8F80010404601F017
:100BE0000701B1420BD9016821F0070131430160CF
:100BF000006800F00700B04201D00120E6E7287845
:100C0000400705D56068E96820F4E060084360604B
:100C10002878000706D56068296920F4605040EA0A
:100C2000C100606000F01CF86168084AC1F303115C
:100C3000515CC840064908600020FFF7E5FE00202F
:100C4000C4E700000020024000100240EC1D000834
:100C500010000020014800687047000010000020CC
:100C600012A185B00FC98DE80F0014A0144A0068C6
:100C700004905168134801F00C03042B10D0082B8A
:100C80000ED1C1F38343C9031DF803000AD551688F
:100C900004AAC1F34041515C0A4A5043B0FBF1F051
:100CA00005B0704708494843FAE70000020304050D
:100CB000060708090A0B0C0D0E0F101001020000A8
:100CC0000010024000127A0000093D002DE9F84FA3
:100CD00004460078B94DC00748D06868C0F3810069
:100CE000012807D06868C0F38100022809D168682C
:100CF000C00306D52868800338D5606800286FD007
:100D000034E06068B0F5803F0BD010B1B0F5A02F93
:100D100011D0286820F480302860286820F48020D2
:100D200002E0286840F480302860606888B1FFF7EE
:100D30004BFE064609E0286840F480202860F0E772
:100D4000FFF742FE801B642875D828688003F7D51A
:100D50000CE0FFF739FE064605E000BFFFF734FE62
:100D6000801B6428F0D828688003F7D42078944E3C
:100D700080074FF001094FF000083BD5686810F07C
:100D80000C0F07D06868C0F38100022809D1686899
:100D9000C00306D42868800714D5206901281FD114
:100DA00010E02069B0B1C6F80090FFF70DFE0746CD
:100DB00005E000BFFFF708FEC01B0228C4D8286862
:100DC0008007F7D52868616920F0F80040EAC10083
:100DD00028600FE0C6F80080FFF7F6FD074606E042
:100DE000E9E000BFFFF7F0FDC01B022823D8286808
:100DF0008007F7D4207800072CD57248A169D9B1B3
:100E0000C0F80090FFF7E0FD074604E0FFF7DCFDC7
:100E1000C01B02280FD8686A8007F7D56A484FF4CC
:100E2000FA510068B0FBF1F0009000BF0098411E3D
:100E30000091FAD20EE080E0C0F80080FFF7C4FD18
:100E4000074604E0FFF7C0FDC01B022875D8686A9A
:100E50008007F7D42078400760D5E8690027C000F4
:100E600008D4E86940F08050E861E869012700F0A3
:100E70008050009055480168C90513D40168834625
:100E800041F480710160FFF79FFD824606E000BFDC
:100E9000FFF79AFDA0EB0A0064284ED8DBF80000AB
:100EA000C005F5D5E06801280AD008B1052813D09F
:100EB000286A20F001002862286A20F0040002E07D
:100EC000286A40F001002862E06841F2883B98B14E
:100ED000FFF77AFD82460BE0286A40F004002862A2
:100EE000EEE700BFFFF770FDA0EB0A0159455AD8A5
:100EF000286A8007F6D50CE0FFF766FD824605E01C
:100F0000FFF762FDA0EB0A0159454CD8286A80071B
:100F1000F6D41FB1E86920F08050E861E06988B339
:100F20006968C1F38101022945D00228C6F86080B2
:100F300004D0FFF749FD044638E034E0FFF744FDF4
:100F4000074604E0FFF740FDC01B02282BD82868A5
:100F50008001F7D4206AB0F5803F05D16868A168A8
:100F600020F4003008436860D4E908010843696848
:100F700021F4741108436860C6F86090FFF724FDFF
:100F8000044606E015E000BFFFF71EFD001B022827
:100F900009D828688001F7D50BE000BFFFF714FDE2
:100FA000001B022802D90320BDE8F88F28688001C1
:100FB000F4D40020F8E70120F6E70000001002401A
:100FC00000004242800442421000002000700040B5
:100FD00010B5401EB0F1807F01D3012010BD4FF04D
:100FE000E02460610F21601700F05AF80020A06132
:100FF00007202061002010BDFEE70000F0B585B09D
:10100000002423480094019402940394816941F0E0
:1010100020018161816901F020010491816941F021
:1010200004018161816901F004010491816941F049
:10103000080181618069174E00F0080004900022C9
:10104000F6213046FFF7BBFC134F00221021384633
:10105000FFF7B5FCF6200125CDE900050220CDE91A
:10106000024069463046FFF7C7FB0820CDE900047F
:10107000694638460294FFF7BFFB1020CDE9000512
:1010800069463846CDE90245FFF7B6FB05B0F0BD2D
:101090000010024000080140000C0140FEE77047CC
:1010A0000907090E002806DA00F00F0000F1E02021
:1010B00080F8141D704700F1E02080F8001470479C
:1010C0007047704770B51C4C00252A4610212046F9
:1010D000FFF775FC0A20FFF765FB0122102120466F
:1010E000FFF76DFC0A20FFF75DFB00221021204670
:1010F000FFF765FC08212046FFF75CFC0028F9D0CB
:1011000003E001206D1CFFF74DFB08212046FFF78F
:1011100051FC0028F5D12846FFF795F8FFF798F81D
:10112000064A074BFFF720F8FFF7A5F804463220E0
:10113000FFF750FB204670BD000C01409A99999929
:1011400099193D40FFF746BC30B58FB0282168465D
:10115000FEF7FFFF14210AA8FEF7FBFF0121080498
:10116000CDE900100024029402250491CDE9075036
:101170004FF4E01009906846FFF7A8FD0F20CDE975
:101180000A056802CDE90C4002210AA80E94FFF777
:10119000ABFC0FB030BD00000D48016841F001010B
:1011A000016041680B4A1140416001680A4A1140E0
:1011B0000160016821F480210160416821F4FE0191
:1011C00041604FF41F0181600449C003086070470B
:1011D000001002400000FFF8FFFFF6FE08ED00E0FF
:1011E000FEE700000FB4084B10B504A902AA03984B
:1011F00000F0CEF8044602A9002000F060FC204672
:1012000010BC5DF814FB0000BF1A000802E008C81B
:10121000121F08C1002AFAD170477047002001E070
:1012200001C1121F002AFBD1704700002DE9FF5FAA
:10123000DDE90220010DDDF838B0024318D044F694
:101240001050A1F2FF3141430D140F98012820D016
:10125000A5EB0B00401C5FEA000A4FF00004474E6C
:10126000DFF81C91A046504616D5CAF1000728E0C9
:101270000F98012443A2012808D0002100980F9B59
:10128000C0E90021C0E90243BDE8FF9F6FEA0B01FE
:10129000F4E7CBF10000DEE7074612E0F80707D0DD
:1012A0002246334640464946FFF783F98046894641
:1012B0002246334610461946FFF77BF904460E4690
:1012C0007F10002FEAD1DDE90201BAF1000F42469A
:1012D0004B4602DAFFF76DF901E0FEF745FF0446E1
:1012E0000E460022284BFFF7EFF903D84FF0FF30EE
:1012F000014607E00022254B20463146FFF7B2F8B1
:10130000FFF7C9F9102409E0002C0ADB0A220023A8
:10131000FEF7E3FF019B30321A55641E50EA0102CA
:10132000F2D1641C019AC4F1110314440F9A012AEA
:1013300003D0012208430DD10AE0084304D0002065
:101340004FF0110B0F9080E7A3EB0B056D1E0DE026
:101350005B4504DD4FF0000205F1010504E003DA0E
:101360004FF00002A5F10105002AECD000980F997A
:10137000C0E90231C0E9004586E7000000002440D2
:101380000000F03F300000000000F0430000E03FAC
:101390002DE9FF4F95B09B468946064600250FE292
:1013A000252877D100242746F84A0121059400E03A
:1013B000044316F8013F203B01FA03F01042F7D135
:1013C00030782A2811D06FF02F033078A0F1300246
:1013D000092A16D8059A44F0020402EB820203EBB4
:1013E00042021044761C0590EFE759F8042B059251
:1013F000002A03DA504244F40054059044F00204F9
:10140000761C30782E2816D116F8010F44F004040B
:101410002A280DD06FF02F023078A0F13003092B6D
:1014200009D807EB870302EB4303C718761CF3E7E1
:1014300059F8047B761C30786C280FD006DC4C28D9
:1014400017D068280DD06A2814D104E0742810D071
:101450007A280FD10DE044F400140AE044F480141B
:1014600001E044F440147278824202D104F5801401
:10147000761C761C307866280BD013DC582877D081
:1014800009DC002875D04528F6D04628F4D0472836
:101490001AD19DE118E0632835D0642879D06528F9
:1014A00012D195E1702873D008DC6728F1D0692843
:1014B0006FD06E280DD06F2806D1B5E073282CD0E0
:1014C000752875D0782874D05A46179990476D1CA6
:1014D00075E1C4F30250022809D003280DD0D9F8D1
:1014E000001004280DD00D6009F1040967E1D9F856
:1014F0000010EA17C1E90052F6E7D9F800100D8094
:10150000F2E70D70F0E719F8041B8DF800100020C9
:101510008DF80100EA46012003E059F804AB4FF0D2
:10152000FF3061074FF0000102D40DE008F1010126
:101530008846B9420FDA8045F8DB1AF8081000290E
:10154000F4D108E008F1010188468142FADB1AF87B
:1015500008100029F6D105985B46A0EB0807214644
:101560003846179A00F094FA284400EB080507E083
:101570004DE029E10DE01AF8010B5A461799904702
:10158000B8F10108F7D25B4621463846179A13E1B5
:1015900042E00A220092C4F302524FF0000A022AEB
:1015A00008D059F804CB032A4FEAEC710AD00DE0B9
:1015B00029E02AE009F1070121F00702F2E802C15F
:1015C000914609E00FFA8CFC4FEAEC71042A03D132
:1015D0004FFA8CFC4FEAEC71002907DA0A46002129
:1015E000DCF1000C61EB02012D2202E0220504D5A2
:1015F0002B228DF80420012203E0E20701D02022F3
:10160000F7E7904659E00A2102E010220DE0102190
:101610004FF0000A00910BE010224FF0000A44F056
:1016200004040827009203E008224FF0000A009209
:10163000C4F30252022A05D059F804CB0021032A30
:1016400008D009E009F1070121F00702F2E802C120
:10165000914605E01FFA8CFC042A01D10CF0FF0C26
:101660004FF00008220728D5702806D0009B83F091
:10167000100353EA0A0305D00EE040228DF804203F
:10168000012208E05CEA010206D030228DF8042035
:101690008DF8050002229046009B83F0080353EA70
:1016A0000A030AD15CEA010201D1620705D53022A2
:1016B0008DF804204FF001087F1E582804D034A074
:1016C00003900EA802900DE036A0F9E7534660465D
:1016D000009AFEF702FE84460398825C0298401E40
:1016E000029002705CEA0100F0D1029806A9081A83
:1016F00000F1200A600702D524F4803400E00127BD
:10170000574502DDA7EB0A0000E0002000EB0A01CC
:10171000009005984144401A0590E00306D45B46CA
:101720002146179A059800F0B3F90544002706E012
:1017300001A85A46C05D179990476D1C7F1C47450C
:10174000F6DBE0030CD55B462146179A059800F0BE
:101750009FF9054404E030205A46179990476D1CC4
:101760000099481E00900029F5DC08E002980299D3
:101770005A460078491C0291179990476D1CBAF19E
:101780000001AAF1010AF1DC65E10000092801006D
:1017900030313233343536373839616263646566E7
:1017A00000000000303132333435363738394142A9
:1017B000434445460000000000F058F90544761CFB
:1017C000307800287FF4ECAD19B02846BDE8F08FE2
:1017D000620700D4062709F1070222F0070CFCE893
:1017E0000223E14603F000485FEA080C02D00FF242
:1017F000702C0DE05FEA045C02D50FF2682C07E064
:101800005FEAC47C02D00FF2602C01E0AFF2700CF2
:101810004FF0FF3823F00043CDF850C065280CD0BE
:1018200006DC452809D046281DD047283DD13DE09B
:10183000662818D067287ED138E00021112F01DBFF
:10184000112000E0781CCDE9000106A90EA8FFF7E1
:10185000EDFCDDE90F010E9A03910021009207F1E2
:10186000010A04914DE04FF000400097CDE90110CE
:1018700006A90EA8FFF7DAFCDDE90F0203920E9B22
:1018800011990022DDF80CA00093049211B9791C83
:1018900000EB010AB7EB0A0004D4C0F1FF3007F1F6
:1018A000010A0490AAEB0700019044E0012F00DA3E
:1018B00001270021112F01DD112000E03846CDE97C
:1018C000000106A90EA8FFF7B1FCDDE90F010E9A91
:1018D0000391002104910092BA4621070CD4039988
:1018E000514500DA8A46BAF1010F05DD009AAAF1E6
:1018F0000101515C302908D0B84202DA10F1040F1E
:1019000006DA0121CDE9011015E0AAF10101E9E7AC
:10191000002805DC049901440491AAEB000102E0CF
:10192000411C514500DD8A460499401A401C019033
:101930004FF000400290200704D40198504501DB8D
:10194000CDF8048000208DF84F0002980DF14F076C
:10195000B0F1004F25D02B200E9002984FF00208D6
:1019600000280CDA404202902D200E9007E00A2158
:101970000298FEF79CFC3031029007F8011DB8F187
:101980000001A8F10108F2DC02980028EFD1791ECD
:101990000E980870307800F0200040F0450007F8FD
:1019A000020D12A8C01B00F107081498007800B1BE
:1019B000012000EB0A01019801EBE0710598414418
:1019C000401A401E0590E00306D45B462146179A54
:1019D000059800F05DF805441498007818B15A464F
:1019E000179990476D1CE00324D55B462146179A52
:1019F000059800F04DF805441CE00498002807DB2A
:101A0000DDE90301884203DD0098405C179901E09D
:101A1000179930205A469047049805F10105401C5B
:101A200004900198401E019004D12E205A46179927
:101A300090476D1CBAF10001AAF1010ADDDC05E056
:101A400017F8010B5A46179990476D1CB8F1000121
:101A5000A8F10108F4DC5B462146179A0598ABE62D
:101A60002D0000002B000000200000002DE9F041B7
:101A7000044600251E461746880404D405E039466E
:101A80002020B0476D1C641EF9D52846BDE8F081C2
:101A90002DE9F041044600251E469046C80301D5B5
:101AA000302700E02027880404D505E04146384669
:101AB000B0476D1C641EF9D52846BDE8F0810A6860
:101AC000531C0B60107070472DE9F04F364A0346E7
:101AD000106840F00400106033494FF002080831EC
:101AE000C1F8008010240C6020250D6040260E6097
:101AF00080270F6000F0DAF8106840F002001060F4
:101B00002A4AD80601D5146002E04FF48010106014
:101B100098064FF4001901D5156001E0C2F8009055
:101B200058064FF4800A01D5166001E0C2F800A003
:101B300018064FF4000B01D5176001E0C2F800B0A1
:101B400000F0B4F8C1F800800C600D600E600F600A
:101B500000F0ACF81448D0F800C04CF0020CC0F80B
:101B600000C0D80701D0146002E04FF4801010606C
:101B7000980701D5156001E0C2F80090580701D51B
:101B8000166001E0C2F800A0180701D5176001E057
:101B9000C2F800B000F08AF8C1F800800C600D6057
:101BA0000E600F60BDE8F08F0C0801401008014086
:101BB00010B5012000F006F8BDE810400220FEF745
:101BC00009BE00002DE9F04F3749034604200860A4
:101BD0004FF00209C1F8009010240C6020250D6020
:101BE00040260E6080270F6000F060F8DFF8B880B4
:101BF000A8F10808D8F8002042F00202C8F8002036
:101C0000D8064FF4801A08F1040201D5146001E0EF
:101C1000C2F800A098064FF4001B01D5156001E042
:101C2000C2F800B0580601D5166002E04FF48000FB
:101C30001060180601D5176002E04FF40000106034
:101C400000F034F8C1F800900C600D600E600F6079
:101C500000F02CF8D8F800C04CF0020CC8F800C016
:101C6000D80701D0146001E0C2F800A0980701D5A0
:101C7000156001E0C2F800B0580701D5166002E017
:101C80004FF480001060180701D5176002E04FF490
:101C90000000106000F00AF8C1F800900C600D60C0
:101CA0000E600F60BDE8F08F140801404FF47A70A9
:101CB000401EFDD17047012805D0022805D1BF3153
:101CC000C8B2FFF77FBF7F31FAE7704770B50646AD
:101CD00014460D46FA20FEF77DFD0220FFF772FF45
:101CE0003220FEF777FD2E43264346F02000FFF713
:101CF00069FF3220FEF76EFD0620FFF763FF3220FA
:101D0000FEF768FD0E20FFF75DFF3220FEF762FD53
:101D10000C20FFF757FF3220FEF75CFD0120FFF794
:101D200051FFBDE870406420FEF754BD10B5044675
:101D300006E000BFFFF7BAFF14F8010BFFF7C4FE7F
:101D400020780028F6D1BDE81040FFF7AFBF10B5EE
:101D50001446FFF7B0FF2046BDE81040FFF7E6BF8E
:101D6000FEF740FE002108220846FFF7AFFFFEF70E
:101D7000F7FCFFF7E9F9FFF741F9FFF719FF012138
:101D80000FA20846FFF7E3FF4FF4FA70FEF722FDBB
:101D90000F4C00BFFFF796F92060C820FEF71AFD30
:101DA0002068FEF755FA02460B460AA10E48FFF7D7
:101DB00019FA01210C4A0846FFF7C9FFEAE70000BB
:101DC00048432D535230342050726F6A6573690056
:101DD00000000020252E32662020636D2020202068
:101DE000202020200000000014000020000000003F
:101DF0000000000001020304060708091C1E000879
:101E000000000020140000000C120008301E000822
:101E100014000020240400001C1200080000000030
:101E200001000000100000000000000000A24A04B1
:04000005080000ED02
:00000001FF
